:100000000C945D000C9485000C9485000C94850084
:100010000C9485000C9485000C9485000C9485004C
:100020000C9485000C9485000C9485000C9485003C
:100030000C9485000C9485000C9485000C9485002C
:100040000C943F020C9485000C94AF020C9489022E
:100050000C9485000C9485000C9485000C9485000C
:100060000C9485000C9485000000000024002700FB
:100070002A0000000000250028002B0004040404CE
:100080000404040402020202020203030303030342
:10009000010204081020408001020408102001021F
:1000A00004081020000000080002010000030407FB
:1000B0000000000000000000910311241FBECFEFDC
:1000C000D8E0DEBFCDBF11E0A0E0B1E0E6E9F7E0A7
:1000D00002C005900D92AA32B107D9F721E0AAE239
:1000E000B1E001C01D92A03DB207E1F710E0CDE5FF
:1000F000D0E004C02197FE010E94BE03CC35D10799
:10010000C9F70E94E1020C94C9030C940000E1EBD2
:10011000F0E09491EDE9F0E02491E9E8F0E0E49179
:10012000EE2309F43CC0992339F1933091F038F46F
:100130009130A9F0923001F594B59F7D12C09730AF
:1001400091F09830A1F09430B9F4909180009F7DA7
:1001500003C0909180009F77909380000DC094B56C
:100160009F7794BD09C09091B0009F7703C0909194
:10017000B0009F7D9093B000F0E0EE0FFF1FEE58AF
:10018000FF4FA591B4919FB7F894811104C08C9151
:100190002095282302C0EC912E2B2C939FBF08950D
:1001A0003FB7F8948091CC019091CD01A091CE0100
:1001B000B091CF0126B5A89B05C02F3F19F001963D
:1001C000A11DB11D3FBFBA2FA92F982F8827820FDD
:1001D000911DA11DB11DBC01CD0142E0660F771F2D
:1001E000881F991F4A95D1F708958F929F92AF92D9
:1001F000BF92CF92DF92EF92FF920E94D0004B010C
:100200005C0188EEC82E83E0D82EE12CF12C0E94F0
:10021000D000DC01CB0188199909AA09BB09883EE5
:100220009340A105B10598F321E0C21AD108E10875
:10023000F10888EE880E83E0981EA11CB11CC11441
:10024000D104E104F10419F7FF90EF90DF90CF9013
:10025000BF90AF909F908F900895CF92DF92EF92D2
:10026000FF920F931F93CF93DF936C017A018B0161
:10027000C0E0D0E0CE15DF0581F0D8016D918D0191
:10028000D601ED91FC910190F081E02DC601099518
:10029000892B11F02196EECF7E01C701DF91CF911E
:1002A0001F910F91FF90EF90DF90CF9008950895E8
:1002B00080E090E00895FC01538D448D252F30E0BF
:1002C000842F90E0821B930B541710F0CF96089563
:1002D00001970895FC01918D828D981761F0828DB0
:1002E000DF01A80FB11D5D968C91928D9F5F9F736A
:1002F000928F90E008958FEF9FEF0895FC01918D0C
:10030000828D981731F0828DE80FF11D858D90E078
:1003100008958FEF9FEF0895FC01918D228D892F15
:1003200090E0805C9F4F821B91098F7399270895FD
:100330008AE291E00E948C0121E0892B09F420E0FF
:10034000822F0895FC01848DDF01A80FB11DA35AEF
:10035000BF4F2C91848D90E001968F739927848FE5
:10036000A689B7892C93A089B1898C918370806408
:100370008C93938D848D981306C00288F389E02DA9
:1003800080818F7D80830895EF92FF920F931F935A
:10039000CF93DF93EC0181E0888F9B8D8C8D981338
:1003A00005C0E889F989808185FD26C0F62E0B8D70
:1003B00010E00F5F1F4F0F731127E02E8C8DE81296
:1003C0000CC00FB607FCFACFE889F989808185FF58
:1003D000F5CFCE010E94A201F1CF8B8DFE01E80F77
:1003E000F11DE35AFF4FF0829FB7F8940B8FEA8913
:1003F000FB89808180620AC09FB7F894EE89FF89EB
:100400006083E889F98980818370806480839FBFDD
:1004100081E090E0DF91CF911F910F91FF90EF90DD
:100420000895CF93DF93EC01888D8823C9F0EA8982
:10043000FB89808185FD05C0A889B9898C9186FDDD
:100440000FC00FB607FCF5CF808185FFF2CFA889DA
:10045000B9898C9185FFEDCFCE010E94A201E7CF33
:10046000DF91CF91089580E090E0892B29F00E94E0
:10047000980181110C94000008950E94C4031F92FA
:100480000F920FB60F9211242F933F938F939F9348
:10049000AF93BF938091C8019091C901A091CA0107
:1004A000B091CB013091C70123E0230F2D3720F409
:1004B0000196A11DB11D05C026E8230F0296A11DBE
:1004C000B11D2093C7018093C8019093C901A093E7
:1004D000CA01B093CB018091CC019091CD01A09144
:1004E000CE01B091CF010196A11DB11D8093CC0129
:1004F0009093CD01A093CE01B093CF01BF91AF9166
:100500009F918F913F912F910F900FBE0F901F9051
:1005100018951F920F920FB60F9211242F933F93AD
:100520004F935F936F937F938F939F93AF93BF93FB
:10053000EF93FF938AE291E00E94A201FF91EF9175
:10054000BF91AF919F918F917F916F915F914F91EB
:100550003F912F910F900FBE0F901F9018951F92F3
:100560000F920FB60F9211242F938F939F93EF93B7
:10057000FF93E0913A01F0913B018081E0914001CD
:10058000F091410182FD12C09081809143018F5F03
:100590008F7320914401821751F0E0914301F0E004
:1005A000E65DFE4F958F8093430101C08081FF91EE
:1005B000EF919F918F912F910F900FBE0F901F90F1
:1005C0001895789484B5826084BD84B5816084BDBB
:1005D00085B5826085BD85B5816085BD80916E00E1
:1005E000816080936E001092810080918100826012
:1005F000809381008091810081608093810080914F
:1006000080008160809380008091B100846080933D
:10061000B1008091B00081608093B00080917A0039
:10062000846080937A0080917A00826080937A005F
:1006300080917A00816080937A0080917A0080684E
:1006400080937A001092C100EDE9F0E02491E9E88E
:10065000F0E08491882399F090E0880F991FFC01C5
:10066000E859FF4FA591B491FC01EE58FF4F8591D9
:1006700094918FB7F894EC91E22BEC938FBFE091BB
:100680003A01F0913B0182E08083E0913601F091E4
:1006900037011082E0913801F09139018FEC8083AD
:1006A00010924201E0913E01F0913F0186E080838B
:1006B000E0913C01F0913D01808180618083E09177
:1006C0003C01F0913D01808188608083E0913C0194
:1006D000F0913D01808180688083E0913C01F09140
:1006E0003D0180818F7D808344E150E062E171E0D3
:1006F0008AE291E00E942D0142E050E067E271E061
:100700008AE291E00E942D0181E00E9487000E9410
:10071000F50080E00E9487000E94F5000E943302ED
:10072000F3CFEAE2F1E01382128288EE93E0A0E0D8
:10073000B0E084839583A683B78384E091E09183BE
:10074000808385EC90E09587848784EC90E09787A0
:10075000868780EC90E0918B808B81EC90E0938B8E
:10076000828B82EC90E0958B848B86EC90E0978B6B
:10077000868B118E128E138E148E0895EE0FFF1F2E
:100780000590F491E02D099481E090E0F8940C94A8
:06079000C903F894FFCF3D
:1007960000000000C4012D015B0111028C016A01F9
:1007A6007E014C65747320736565206966206974E3
:0A07B60020776F726B73000D0A00CC
:107E0000112484B714BE81FFF0D085E080938100F7
:107E100082E08093C00088E18093C10086E0809377
:107E2000C20080E18093C4008EE0C9D0259A86E02C
:107E300020E33CEF91E0309385002093840096BBD3
:107E4000B09BFECF1D9AA8958150A9F7CC24DD24C4
:107E500088248394B5E0AB2EA1E19A2EF3E0BF2EE7
:107E6000A2D0813461F49FD0082FAFD0023811F036
:107E7000013811F484E001C083E08DD089C08234E0
:107E800011F484E103C0853419F485E0A6D080C0E4
:107E9000853579F488D0E82EFF2485D0082F10E0AE
:107EA000102F00270E291F29000F111F8ED06801E7
:107EB0006FC0863521F484E090D080E0DECF843638
:107EC00009F040C070D06FD0082F6DD080E0C81688
:107ED00080E7D80618F4F601B7BEE895C0E0D1E017
:107EE00062D089930C17E1F7F0E0CF16F0E7DF06D8
:107EF00018F0F601B7BEE89568D007B600FCFDCFD4
:107F0000A601A0E0B1E02C9130E011968C91119780
:107F100090E0982F8827822B932B1296FA010C0160
:107F200087BEE89511244E5F5F4FF1E0A038BF0790
:107F300051F7F601A7BEE89507B600FCFDCF97BE46
:107F4000E89526C08437B1F42ED02DD0F82E2BD052
:107F50003CD0F601EF2C8F010F5F1F4F84911BD097
:107F6000EA94F801C1F70894C11CD11CFA94CF0C13
:107F7000D11C0EC0853739F428D08EE10CD085E9AC
:107F80000AD08FE07ACF813511F488E018D01DD067
:107F900080E101D065CF982F8091C00085FFFCCF94
:107FA0009093C60008958091C00087FFFCCF809118
:107FB000C00084FD01C0A8958091C6000895E0E648
:107FC000F0E098E1908380830895EDDF803219F02E
:107FD00088E0F5DFFFCF84E1DECF1F93182FE3DFCA
:107FE0001150E9F7F2DF1F91089580E0E8DFEE27F6
:047FF000FF270994CA
:027FFE00040479
:0400000300007E007B
:00000001FF
